{
  "contractName": "CarRental",
  "abi": [
    {
      "inputs": [
        {
          "internalType": "uint256",
          "name": "",
          "type": "uint256"
        }
      ],
      "name": "cars",
      "outputs": [
        {
          "internalType": "uint256",
          "name": "id",
          "type": "uint256"
        },
        {
          "internalType": "string",
          "name": "name",
          "type": "string"
        },
        {
          "internalType": "string",
          "name": "model",
          "type": "string"
        },
        {
          "internalType": "uint256",
          "name": "pricePerHour",
          "type": "uint256"
        },
        {
          "internalType": "bool",
          "name": "available",
          "type": "bool"
        },
        {
          "internalType": "address",
          "name": "currentRenter",
          "type": "address"
        }
      ],
      "stateMutability": "view",
      "type": "function",
      "constant": true
    },
    {
      "inputs": [
        {
          "internalType": "address",
          "name": "",
          "type": "address"
        }
      ],
      "name": "rentals",
      "outputs": [
        {
          "internalType": "address",
          "name": "renter",
          "type": "address"
        },
        {
          "internalType": "uint256",
          "name": "rentalStartTime",
          "type": "uint256"
        },
        {
          "internalType": "uint256",
          "name": "rentalEndTime",
          "type": "uint256"
        },
        {
          "internalType": "uint256",
          "name": "duration",
          "type": "uint256"
        },
        {
          "internalType": "uint256",
          "name": "totalCost",
          "type": "uint256"
        }
      ],
      "stateMutability": "view",
      "type": "function",
      "constant": true
    },
    {
      "inputs": [
        {
          "internalType": "uint256",
          "name": "_id",
          "type": "uint256"
        },
        {
          "internalType": "string",
          "name": "name",
          "type": "string"
        },
        {
          "internalType": "string",
          "name": "model",
          "type": "string"
        },
        {
          "internalType": "uint256",
          "name": "pricePerHour",
          "type": "uint256"
        }
      ],
      "name": "addCar",
      "outputs": [],
      "stateMutability": "nonpayable",
      "type": "function"
    },
    {
      "inputs": [
        {
          "internalType": "uint256",
          "name": "_id",
          "type": "uint256"
        },
        {
          "internalType": "uint256",
          "name": "rentalHours",
          "type": "uint256"
        }
      ],
      "name": "rentCar",
      "outputs": [],
      "stateMutability": "payable",
      "type": "function",
      "payable": true
    },
    {
      "inputs": [
        {
          "internalType": "uint256",
          "name": "_id",
          "type": "uint256"
        }
      ],
      "name": "returnCar",
      "outputs": [],
      "stateMutability": "nonpayable",
      "type": "function"
    },
    {
      "inputs": [
        {
          "internalType": "uint256",
          "name": "_id",
          "type": "uint256"
        }
      ],
      "name": "getCar",
      "outputs": [
        {
          "internalType": "string",
          "name": "",
          "type": "string"
        },
        {
          "internalType": "string",
          "name": "",
          "type": "string"
        },
        {
          "internalType": "uint256",
          "name": "",
          "type": "uint256"
        },
        {
          "internalType": "bool",
          "name": "",
          "type": "bool"
        },
        {
          "internalType": "address",
          "name": "",
          "type": "address"
        }
      ],
      "stateMutability": "view",
      "type": "function",
      "constant": true
    },
    {
      "inputs": [
        {
          "internalType": "address",
          "name": "renter",
          "type": "address"
        }
      ],
      "name": "getRental",
      "outputs": [
        {
          "internalType": "address",
          "name": "",
          "type": "address"
        },
        {
          "internalType": "uint256",
          "name": "",
          "type": "uint256"
        },
        {
          "internalType": "uint256",
          "name": "",
          "type": "uint256"
        },
        {
          "internalType": "uint256",
          "name": "",
          "type": "uint256"
        },
        {
          "internalType": "uint256",
          "name": "",
          "type": "uint256"
        }
      ],
      "stateMutability": "view",
      "type": "function",
      "constant": true
    }
  ],
  "bytecode": "0x608060405234801561001057600080fd5b506119dc806100206000396000f3fe6080604052600436106100705760003560e01c806367c8833c1161004e57806367c8833c146101085780636ba85eb4146101495780639ca0fc0d1461018a578063f7746e36146101a657610070565b806317f956e0146100755780633b9b93271461009e5780635e8be190146100c7575b600080fd5b34801561008157600080fd5b5061009c60048036038101906100979190610d53565b6101e8565b005b3480156100aa57600080fd5b506100c560048036038101906100c09190610ec6565b6104a6565b005b3480156100d357600080fd5b506100ee60048036038101906100e99190610d53565b6106d1565b6040516100ff95949392919061104f565b60405180910390f35b34801561011457600080fd5b5061012f600480360381019061012a91906110dc565b61085e565b604051610140959493929190611109565b60405180910390f35b34801561015557600080fd5b50610170600480360381019061016b91906110dc565b6108f5565b604051610181959493929190611109565b60405180910390f35b6101a4600480360381019061019f919061115c565b61094b565b005b3480156101b257600080fd5b506101cd60048036038101906101c89190610d53565b610b90565b6040516101df9695949392919061119c565b60405180910390f35b6000600160003373ffffffffffffffffffffffffffffffffffffffff1673ffffffffffffffffffffffffffffffffffffffff1681526020019081526020016000209050600080600084815260200190815260200160002090504282600201541115610288576040517f08c379a000000000000000000000000000000000000000000000000000000000815260040161027f90611257565b60405180910390fd5b8060040160009054906101000a900460ff16156102da576040517f08c379a00000000000000000000000000000000000000000000000000000000081526004016102d1906112c3565b60405180910390fd5b3373ffffffffffffffffffffffffffffffffffffffff168160040160019054906101000a900473ffffffffffffffffffffffffffffffffffffffff1673ffffffffffffffffffffffffffffffffffffffff161461036c576040517f08c379a000000000000000000000000000000000000000000000000000000000815260040161036390611355565b60405180910390fd5b60018160040160006101000a81548160ff02191690831515021790555060008160040160016101000a81548173ffffffffffffffffffffffffffffffffffffffff021916908373ffffffffffffffffffffffffffffffffffffffff1602179055503373ffffffffffffffffffffffffffffffffffffffff166108fc83600401549081150290604051600060405180830381858888f19350505050158015610417573d6000803e3d6000fd5b50600160003373ffffffffffffffffffffffffffffffffffffffff1673ffffffffffffffffffffffffffffffffffffffff168152602001908152602001600020600080820160006101000a81549073ffffffffffffffffffffffffffffffffffffffff021916905560018201600090556002820160009055600382016000905560048201600090555050505050565b60008351116104ea576040517f08c379a00000000000000000000000000000000000000000000000000000000081526004016104e1906113c1565b60405180910390fd5b600082511161052e576040517f08c379a00000000000000000000000000000000000000000000000000000000081526004016105259061142d565b60405180910390fd5b60008111610571576040517f08c379a0000000000000000000000000000000000000000000000000000000008152600401610568906114bf565b60405180910390fd5b8360008086815260200190815260200160002060000154036105c8576040517f08c379a00000000000000000000000000000000000000000000000000000000081526004016105bf9061152b565b60405180910390fd5b6040518060c00160405280858152602001848152602001838152602001828152602001600115158152602001600073ffffffffffffffffffffffffffffffffffffffff168152506000808681526020019081526020016000206000820151816000015560208201518160010190816106409190611757565b5060408201518160020190816106569190611757565b506060820151816003015560808201518160040160006101000a81548160ff02191690831515021790555060a08201518160040160016101000a81548173ffffffffffffffffffffffffffffffffffffffff021916908373ffffffffffffffffffffffffffffffffffffffff16021790555090505050505050565b6060806000806000806000808881526020019081526020016000209050806001018160020182600301548360040160009054906101000a900460ff168460040160019054906101000a900473ffffffffffffffffffffffffffffffffffffffff1684805461073e9061157a565b80601f016020809104026020016040519081016040528092919081815260200182805461076a9061157a565b80156107b75780601f1061078c576101008083540402835291602001916107b7565b820191906000526020600020905b81548152906001019060200180831161079a57829003601f168201915b505050505094508380546107ca9061157a565b80601f01602080910402602001604051908101604052809291908181526020018280546107f69061157a565b80156108435780601f1061081857610100808354040283529160200191610843565b820191906000526020600020905b81548152906001019060200180831161082657829003601f168201915b50505050509350955095509550955095505091939590929450565b600080600080600080600160008873ffffffffffffffffffffffffffffffffffffffff1673ffffffffffffffffffffffffffffffffffffffff16815260200190815260200160002090508060000160009054906101000a900473ffffffffffffffffffffffffffffffffffffffff168160010154826002015483600301548460040154955095509550955095505091939590929450565b60016020528060005260406000206000915090508060000160009054906101000a900473ffffffffffffffffffffffffffffffffffffffff16908060010154908060020154908060030154908060040154905085565b600080600084815260200190815260200160002090508060040160009054906101000a900460ff166109b2576040517f08c379a00000000000000000000000000000000000000000000000000000000081526004016109a990611875565b60405180910390fd5b8181600301546109c291906118c4565b341015610a04576040517f08c379a00000000000000000000000000000000000000000000000000000000081526004016109fb90611952565b60405180910390fd5b60004290506000610e1084610a1991906118c4565b82610a249190611972565b90506000848460030154610a3891906118c4565b90506040518060a001604052803373ffffffffffffffffffffffffffffffffffffffff16815260200184815260200183815260200186815260200182815250600160003373ffffffffffffffffffffffffffffffffffffffff1673ffffffffffffffffffffffffffffffffffffffff16815260200190815260200160002060008201518160000160006101000a81548173ffffffffffffffffffffffffffffffffffffffff021916908373ffffffffffffffffffffffffffffffffffffffff1602179055506020820151816001015560408201518160020155606082015181600301556080820151816004015590505060008460040160006101000a81548160ff021916908315150217905550338460040160016101000a81548173ffffffffffffffffffffffffffffffffffffffff021916908373ffffffffffffffffffffffffffffffffffffffff160217905550505050505050565b6000602052806000526040600020600091509050806000015490806001018054610bb99061157a565b80601f0160208091040260200160405190810160405280929190818152602001828054610be59061157a565b8015610c325780601f10610c0757610100808354040283529160200191610c32565b820191906000526020600020905b815481529060010190602001808311610c1557829003601f168201915b505050505090806002018054610c479061157a565b80601f0160208091040260200160405190810160405280929190818152602001828054610c739061157a565b8015610cc05780601f10610c9557610100808354040283529160200191610cc0565b820191906000526020600020905b815481529060010190602001808311610ca357829003601f168201915b5050505050908060030154908060040160009054906101000a900460ff16908060040160019054906101000a900473ffffffffffffffffffffffffffffffffffffffff16905086565b6000604051905090565b600080fd5b600080fd5b6000819050919050565b610d3081610d1d565b8114610d3b57600080fd5b50565b600081359050610d4d81610d27565b92915050565b600060208284031215610d6957610d68610d13565b5b6000610d7784828501610d3e565b91505092915050565b600080fd5b600080fd5b6000601f19601f8301169050919050565b7f4e487b7100000000000000000000000000000000000000000000000000000000600052604160045260246000fd5b610dd382610d8a565b810181811067ffffffffffffffff82111715610df257610df1610d9b565b5b80604052505050565b6000610e05610d09565b9050610e118282610dca565b919050565b600067ffffffffffffffff821115610e3157610e30610d9b565b5b610e3a82610d8a565b9050602081019050919050565b82818337600083830152505050565b6000610e69610e6484610e16565b610dfb565b905082815260208101848484011115610e8557610e84610d85565b5b610e90848285610e47565b509392505050565b600082601f830112610ead57610eac610d80565b5b8135610ebd848260208601610e56565b91505092915050565b60008060008060808587031215610ee057610edf610d13565b5b6000610eee87828801610d3e565b945050602085013567ffffffffffffffff811115610f0f57610f0e610d18565b5b610f1b87828801610e98565b935050604085013567ffffffffffffffff811115610f3c57610f3b610d18565b5b610f4887828801610e98565b9250506060610f5987828801610d3e565b91505092959194509250565b600081519050919050565b600082825260208201905092915050565b60005b83811015610f9f578082015181840152602081019050610f84565b60008484015250505050565b6000610fb682610f65565b610fc08185610f70565b9350610fd0818560208601610f81565b610fd981610d8a565b840191505092915050565b610fed81610d1d565b82525050565b60008115159050919050565b61100881610ff3565b82525050565b600073ffffffffffffffffffffffffffffffffffffffff82169050919050565b60006110398261100e565b9050919050565b6110498161102e565b82525050565b600060a08201905081810360008301526110698188610fab565b9050818103602083015261107d8187610fab565b905061108c6040830186610fe4565b6110996060830185610fff565b6110a66080830184611040565b9695505050505050565b6110b98161102e565b81146110c457600080fd5b50565b6000813590506110d6816110b0565b92915050565b6000602082840312156110f2576110f1610d13565b5b6000611100848285016110c7565b91505092915050565b600060a08201905061111e6000830188611040565b61112b6020830187610fe4565b6111386040830186610fe4565b6111456060830185610fe4565b6111526080830184610fe4565b9695505050505050565b6000806040838503121561117357611172610d13565b5b600061118185828601610d3e565b925050602061119285828601610d3e565b9150509250929050565b600060c0820190506111b16000830189610fe4565b81810360208301526111c38188610fab565b905081810360408301526111d78187610fab565b90506111e66060830186610fe4565b6111f36080830185610fff565b61120060a0830184611040565b979650505050505050565b7f52656e74616c2074696d65206e6f74206f766572207965742e00000000000000600082015250565b6000611241601983610f70565b915061124c8261120b565b602082019050919050565b6000602082019050818103600083015261127081611234565b9050919050565b7f436172206973206e6f742072656e7465642e0000000000000000000000000000600082015250565b60006112ad601283610f70565b91506112b882611277565b602082019050919050565b600060208201905081810360008301526112dc816112a0565b9050919050565b7f4e6f74207468652063757272656e742072656e746572206f662074686520636160008201527f722e000000000000000000000000000000000000000000000000000000000000602082015250565b600061133f602283610f70565b915061134a826112e3565b604082019050919050565b6000602082019050818103600083015261136e81611332565b9050919050565b7f436172206d616b652069732072657175697265642e0000000000000000000000600082015250565b60006113ab601583610f70565b91506113b682611375565b602082019050919050565b600060208201905081810360008301526113da8161139e565b9050919050565b7f436172206d6f64656c2069732072657175697265642e00000000000000000000600082015250565b6000611417601683610f70565b9150611422826113e1565b602082019050919050565b600060208201905081810360008301526114468161140a565b9050919050565b7f4361722072656e74616c2070726963652070657220686f7572206d757374206260008201527f652067726561746572207468616e20302e000000000000000000000000000000602082015250565b60006114a9603183610f70565b91506114b48261144d565b604082019050919050565b600060208201905081810360008301526114d88161149c565b9050919050565b7f4361722077697468207468697320494420616c7265616479206578697374732e600082015250565b6000611515602083610f70565b9150611520826114df565b602082019050919050565b6000602082019050818103600083015261154481611508565b9050919050565b7f4e487b7100000000000000000000000000000000000000000000000000000000600052602260045260246000fd5b6000600282049050600182168061159257607f821691505b6020821081036115a5576115a461154b565b5b50919050565b60008190508160005260206000209050919050565b60006020601f8301049050919050565b600082821b905092915050565b60006008830261160d7fffffffffffffffffffffffffffffffffffffffffffffffffffffffffffffffff826115d0565b61161786836115d0565b95508019841693508086168417925050509392505050565b6000819050919050565b600061165461164f61164a84610d1d565b61162f565b610d1d565b9050919050565b6000819050919050565b61166e83611639565b61168261167a8261165b565b8484546115dd565b825550505050565b600090565b61169761168a565b6116a2818484611665565b505050565b5b818110156116c6576116bb60008261168f565b6001810190506116a8565b5050565b601f82111561170b576116dc816115ab565b6116e5846115c0565b810160208510156116f4578190505b611708611700856115c0565b8301826116a7565b50505b505050565b600082821c905092915050565b600061172e60001984600802611710565b1980831691505092915050565b6000611747838361171d565b9150826002028217905092915050565b61176082610f65565b67ffffffffffffffff81111561177957611778610d9b565b5b611783825461157a565b61178e8282856116ca565b600060209050601f8311600181146117c157600084156117af578287015190505b6117b9858261173b565b865550611821565b601f1984166117cf866115ab565b60005b828110156117f7578489015182556001820191506020850194506020810190506117d2565b868310156118145784890151611810601f89168261171d565b8355505b6001600288020188555050505b505050505050565b7f436172206973206e6f7420617661696c61626c652e0000000000000000000000600082015250565b600061185f601583610f70565b915061186a82611829565b602082019050919050565b6000602082019050818103600083015261188e81611852565b9050919050565b7f4e487b7100000000000000000000000000000000000000000000000000000000600052601160045260246000fd5b60006118cf82610d1d565b91506118da83610d1d565b92508282026118e881610d1d565b915082820484148315176118ff576118fe611895565b5b5092915050565b7f496e73756666696369656e742066756e64732e00000000000000000000000000600082015250565b600061193c601383610f70565b915061194782611906565b602082019050919050565b6000602082019050818103600083015261196b8161192f565b9050919050565b600061197d82610d1d565b915061198883610d1d565b92508282019050808211156119a05761199f611895565b5b9291505056fea2646970667358221220c2636b814b9358c9250cc4ad727d9c5577d1ac69b5a660c44d9df91f97877a1d64736f6c63430008110033",
  "immutableReferences": {},
  "source": "// SPDX-License-Identifier: MIT\r\npragma solidity ^0.8.4;\r\n\r\ncontract CarRental {\r\n    // Car details\r\n    struct Car {\r\n        uint256 id;\r\n        string name;\r\n        string model;\r\n        uint256 pricePerHour;\r\n        bool available;\r\n        address currentRenter;\r\n    }\r\n\r\n    // Rental transaction\r\n    struct Rental {\r\n        address renter;\r\n        uint256 rentalStartTime;\r\n        uint256 rentalEndTime;\r\n        uint256 duration;\r\n        uint256 totalCost;\r\n    }\r\n\r\n    // Car inventory\r\n    mapping (uint => Car) public cars;\r\n\r\n    // Rental transactions\r\n    mapping (address => Rental) public rentals;\r\n\r\n    // Add a new car to the inventory\r\n    function addCar(uint256 _id, string memory name, string memory model, uint256 pricePerHour) public  {\r\n        require(bytes(name).length > 0, \"Car make is required.\");\r\n        require(bytes(model).length > 0, \"Car model is required.\");\r\n        require(pricePerHour > 0, \"Car rental price per hour must be greater than 0.\");\r\n        require(cars[_id].id != _id, \"Car with this ID already exists.\");\r\n        cars[_id] = Car(_id, name, model, pricePerHour, true, address(0));\r\n    }\r\n\r\n    // Rent a car\r\n    function rentCar(uint256 _id, uint256 rentalHours) public payable {\r\n        Car storage car = cars[_id];\r\n        require(car.available, \"Car is not available.\");\r\n        require(msg.value >= car.pricePerHour * rentalHours, \"Insufficient funds.\");\r\n\r\n        uint256 rentalStartTime = block.timestamp;\r\n        uint256 rentalEndTime = rentalStartTime + (rentalHours * 1 hours);\r\n        uint256 totalCost = car.pricePerHour * rentalHours;\r\n\r\n        rentals[msg.sender] = Rental(msg.sender, rentalStartTime, rentalEndTime, rentalHours, totalCost);\r\n        car.available = false;\r\n        car.currentRenter = msg.sender;\r\n    }\r\n\r\n    // Return a rented car\r\n    function returnCar(uint256 _id) public {\r\n        Rental storage rental = rentals[msg.sender];\r\n        Car storage car = cars[_id];\r\n\r\n        require(rental.rentalEndTime <= block.timestamp, \"Rental time not over yet.\");\r\n        require(!car.available, \"Car is not rented.\");\r\n        require(car.currentRenter == msg.sender, \"Not the current renter of the car.\");\r\n\r\n        car.available = true;\r\n        car.currentRenter = address(0);\r\n\r\n        payable(msg.sender).transfer(rental.totalCost);\r\n\r\n        delete rentals[msg.sender];\r\n    }\r\n\r\n    // Get car details\r\n    function getCar(uint256 _id) public view returns (string memory, string memory, uint256, bool, address) {\r\n        Car storage car = cars[_id];\r\n        return (car.name, car.model, car.pricePerHour, car.available, car.currentRenter);\r\n    } \r\n\r\n    // Get rental details\r\n    function getRental(address renter) public view returns (address,  uint256,uint256, uint256, uint256) {\r\n        Rental storage rental = rentals[renter];\r\n        return (rental.renter,rental.rentalStartTime, rental.rentalEndTime, rental.duration, rental.totalCost);\r\n    }\r\n}",
  "sourcePath": "E:\\MinorProject\\smartcontract\\contracts\\CarRental.sol",
  "compiler": {
    "name": "solc",
    "version": "0.8.17+commit.8df45f5f.Emscripten.clang"
  },
  "schemaVersion": "3.4.11",
  "updatedAt": "2023-05-12T03:33:53.100Z",
  "networkType": "ethereum",
  "devdoc": {
    "kind": "dev",
    "methods": {},
    "version": 1
  },
  "userdoc": {
    "kind": "user",
    "methods": {},
    "version": 1
  }
}